{
  "_format": "hh-sol-artifact-1",
  "contractName": "NFTRewards",
  "sourceName": "contracts/NFTRewards.sol",
  "abi": [
    {
      "inputs": [
        {
          "internalType": "address",
          "name": "_billPaymentContract",
          "type": "address"
        }
      ],
      "stateMutability": "nonpayable",
      "type": "constructor"
    },
    {
      "anonymous": false,
      "inputs": [
        {
          "indexed": true,
          "internalType": "address",
          "name": "owner",
          "type": "address"
        },
        {
          "indexed": true,
          "internalType": "address",
          "name": "approved",
          "type": "address"
        },
        {
          "indexed": true,
          "internalType": "uint256",
          "name": "tokenId",
          "type": "uint256"
        }
      ],
      "name": "Approval",
      "type": "event"
    },
    {
      "anonymous": false,
      "inputs": [
        {
          "indexed": true,
          "internalType": "address",
          "name": "owner",
          "type": "address"
        },
        {
          "indexed": true,
          "internalType": "address",
          "name": "operator",
          "type": "address"
        },
        {
          "indexed": false,
          "internalType": "bool",
          "name": "approved",
          "type": "bool"
        }
      ],
      "name": "ApprovalForAll",
      "type": "event"
    },
    {
      "anonymous": false,
      "inputs": [
        {
          "indexed": false,
          "internalType": "uint256",
          "name": "_fromTokenId",
          "type": "uint256"
        },
        {
          "indexed": false,
          "internalType": "uint256",
          "name": "_toTokenId",
          "type": "uint256"
        }
      ],
      "name": "BatchMetadataUpdate",
      "type": "event"
    },
    {
      "anonymous": false,
      "inputs": [
        {
          "indexed": false,
          "internalType": "uint256",
          "name": "_tokenId",
          "type": "uint256"
        }
      ],
      "name": "MetadataUpdate",
      "type": "event"
    },
    {
      "anonymous": false,
      "inputs": [
        {
          "indexed": true,
          "internalType": "address",
          "name": "previousOwner",
          "type": "address"
        },
        {
          "indexed": true,
          "internalType": "address",
          "name": "newOwner",
          "type": "address"
        }
      ],
      "name": "OwnershipTransferred",
      "type": "event"
    },
    {
      "anonymous": false,
      "inputs": [
        {
          "indexed": true,
          "internalType": "address",
          "name": "user",
          "type": "address"
        },
        {
          "indexed": false,
          "internalType": "uint256",
          "name": "streakLength",
          "type": "uint256"
        }
      ],
      "name": "PaymentStreakReward",
      "type": "event"
    },
    {
      "anonymous": false,
      "inputs": [
        {
          "indexed": true,
          "internalType": "address",
          "name": "recipient",
          "type": "address"
        },
        {
          "indexed": true,
          "internalType": "uint256",
          "name": "tokenId",
          "type": "uint256"
        },
        {
          "indexed": false,
          "internalType": "enum NFTRewards.RewardTier",
          "name": "tier",
          "type": "uint8"
        },
        {
          "indexed": false,
          "internalType": "string",
          "name": "achievement",
          "type": "string"
        }
      ],
      "name": "RewardMinted",
      "type": "event"
    },
    {
      "anonymous": false,
      "inputs": [
        {
          "indexed": true,
          "internalType": "address",
          "name": "user",
          "type": "address"
        },
        {
          "indexed": false,
          "internalType": "enum NFTRewards.RewardTier",
          "name": "tier",
          "type": "uint8"
        }
      ],
      "name": "TierAchieved",
      "type": "event"
    },
    {
      "anonymous": false,
      "inputs": [
        {
          "indexed": true,
          "internalType": "address",
          "name": "from",
          "type": "address"
        },
        {
          "indexed": true,
          "internalType": "address",
          "name": "to",
          "type": "address"
        },
        {
          "indexed": true,
          "internalType": "uint256",
          "name": "tokenId",
          "type": "uint256"
        }
      ],
      "name": "Transfer",
      "type": "event"
    },
    {
      "inputs": [],
      "name": "HIGH_VALUE_THRESHOLD",
      "outputs": [
        {
          "internalType": "uint256",
          "name": "",
          "type": "uint256"
        }
      ],
      "stateMutability": "view",
      "type": "function"
    },
    {
      "inputs": [],
      "name": "STREAK_REWARD_THRESHOLD",
      "outputs": [
        {
          "internalType": "uint256",
          "name": "",
          "type": "uint256"
        }
      ],
      "stateMutability": "view",
      "type": "function"
    },
    {
      "inputs": [
        {
          "internalType": "address",
          "name": "to",
          "type": "address"
        },
        {
          "internalType": "uint256",
          "name": "tokenId",
          "type": "uint256"
        }
      ],
      "name": "approve",
      "outputs": [],
      "stateMutability": "nonpayable",
      "type": "function"
    },
    {
      "inputs": [
        {
          "internalType": "address",
          "name": "owner",
          "type": "address"
        }
      ],
      "name": "balanceOf",
      "outputs": [
        {
          "internalType": "uint256",
          "name": "",
          "type": "uint256"
        }
      ],
      "stateMutability": "view",
      "type": "function"
    },
    {
      "inputs": [],
      "name": "billPaymentContract",
      "outputs": [
        {
          "internalType": "contract IBillPayment",
          "name": "",
          "type": "address"
        }
      ],
      "stateMutability": "view",
      "type": "function"
    },
    {
      "inputs": [
        {
          "internalType": "address",
          "name": "_user",
          "type": "address"
        }
      ],
      "name": "checkPaymentStreak",
      "outputs": [
        {
          "internalType": "bool",
          "name": "",
          "type": "bool"
        }
      ],
      "stateMutability": "nonpayable",
      "type": "function"
    },
    {
      "inputs": [
        {
          "internalType": "uint256",
          "name": "tokenId",
          "type": "uint256"
        }
      ],
      "name": "getApproved",
      "outputs": [
        {
          "internalType": "address",
          "name": "",
          "type": "address"
        }
      ],
      "stateMutability": "view",
      "type": "function"
    },
    {
      "inputs": [
        {
          "internalType": "uint256",
          "name": "_tokenId",
          "type": "uint256"
        }
      ],
      "name": "getRewardNFT",
      "outputs": [
        {
          "components": [
            {
              "internalType": "uint256",
              "name": "tokenId",
              "type": "uint256"
            },
            {
              "internalType": "address",
              "name": "recipient",
              "type": "address"
            },
            {
              "internalType": "enum NFTRewards.RewardTier",
              "name": "tier",
              "type": "uint8"
            },
            {
              "internalType": "uint256",
              "name": "mintedAt",
              "type": "uint256"
            },
            {
              "internalType": "uint256",
              "name": "paymentsCompleted",
              "type": "uint256"
            },
            {
              "internalType": "uint256",
              "name": "totalValue",
              "type": "uint256"
            },
            {
              "internalType": "string",
              "name": "achievement",
              "type": "string"
            }
          ],
          "internalType": "struct NFTRewards.RewardNFT",
          "name": "",
          "type": "tuple"
        }
      ],
      "stateMutability": "view",
      "type": "function"
    },
    {
      "inputs": [
        {
          "internalType": "address",
          "name": "_user",
          "type": "address"
        }
      ],
      "name": "getUserNFTs",
      "outputs": [
        {
          "internalType": "uint256[]",
          "name": "",
          "type": "uint256[]"
        }
      ],
      "stateMutability": "view",
      "type": "function"
    },
    {
      "inputs": [
        {
          "internalType": "address",
          "name": "_user",
          "type": "address"
        }
      ],
      "name": "getUserStats",
      "outputs": [
        {
          "internalType": "uint256",
          "name": "paymentCount",
          "type": "uint256"
        },
        {
          "internalType": "uint256",
          "name": "totalValue",
          "type": "uint256"
        },
        {
          "internalType": "uint256",
          "name": "nftCount",
          "type": "uint256"
        },
        {
          "internalType": "enum NFTRewards.RewardTier",
          "name": "highestTier",
          "type": "uint8"
        }
      ],
      "stateMutability": "view",
      "type": "function"
    },
    {
      "inputs": [
        {
          "internalType": "address",
          "name": "_user",
          "type": "address"
        }
      ],
      "name": "getUserTierStatus",
      "outputs": [
        {
          "internalType": "bool",
          "name": "bronze",
          "type": "bool"
        },
        {
          "internalType": "bool",
          "name": "silver",
          "type": "bool"
        },
        {
          "internalType": "bool",
          "name": "gold",
          "type": "bool"
        },
        {
          "internalType": "bool",
          "name": "diamond",
          "type": "bool"
        },
        {
          "internalType": "bool",
          "name": "platinum",
          "type": "bool"
        }
      ],
      "stateMutability": "view",
      "type": "function"
    },
    {
      "inputs": [
        {
          "internalType": "address",
          "name": "owner",
          "type": "address"
        },
        {
          "internalType": "address",
          "name": "operator",
          "type": "address"
        }
      ],
      "name": "isApprovedForAll",
      "outputs": [
        {
          "internalType": "bool",
          "name": "",
          "type": "bool"
        }
      ],
      "stateMutability": "view",
      "type": "function"
    },
    {
      "inputs": [],
      "name": "name",
      "outputs": [
        {
          "internalType": "string",
          "name": "",
          "type": "string"
        }
      ],
      "stateMutability": "view",
      "type": "function"
    },
    {
      "inputs": [],
      "name": "owner",
      "outputs": [
        {
          "internalType": "address",
          "name": "",
          "type": "address"
        }
      ],
      "stateMutability": "view",
      "type": "function"
    },
    {
      "inputs": [
        {
          "internalType": "uint256",
          "name": "tokenId",
          "type": "uint256"
        }
      ],
      "name": "ownerOf",
      "outputs": [
        {
          "internalType": "address",
          "name": "",
          "type": "address"
        }
      ],
      "stateMutability": "view",
      "type": "function"
    },
    {
      "inputs": [],
      "name": "renounceOwnership",
      "outputs": [],
      "stateMutability": "nonpayable",
      "type": "function"
    },
    {
      "inputs": [
        {
          "internalType": "uint256",
          "name": "",
          "type": "uint256"
        }
      ],
      "name": "rewardNFTs",
      "outputs": [
        {
          "internalType": "uint256",
          "name": "tokenId",
          "type": "uint256"
        },
        {
          "internalType": "address",
          "name": "recipient",
          "type": "address"
        },
        {
          "internalType": "enum NFTRewards.RewardTier",
          "name": "tier",
          "type": "uint8"
        },
        {
          "internalType": "uint256",
          "name": "mintedAt",
          "type": "uint256"
        },
        {
          "internalType": "uint256",
          "name": "paymentsCompleted",
          "type": "uint256"
        },
        {
          "internalType": "uint256",
          "name": "totalValue",
          "type": "uint256"
        },
        {
          "internalType": "string",
          "name": "achievement",
          "type": "string"
        }
      ],
      "stateMutability": "view",
      "type": "function"
    },
    {
      "inputs": [
        {
          "internalType": "address",
          "name": "from",
          "type": "address"
        },
        {
          "internalType": "address",
          "name": "to",
          "type": "address"
        },
        {
          "internalType": "uint256",
          "name": "tokenId",
          "type": "uint256"
        }
      ],
      "name": "safeTransferFrom",
      "outputs": [],
      "stateMutability": "nonpayable",
      "type": "function"
    },
    {
      "inputs": [
        {
          "internalType": "address",
          "name": "from",
          "type": "address"
        },
        {
          "internalType": "address",
          "name": "to",
          "type": "address"
        },
        {
          "internalType": "uint256",
          "name": "tokenId",
          "type": "uint256"
        },
        {
          "internalType": "bytes",
          "name": "data",
          "type": "bytes"
        }
      ],
      "name": "safeTransferFrom",
      "outputs": [],
      "stateMutability": "nonpayable",
      "type": "function"
    },
    {
      "inputs": [
        {
          "internalType": "address",
          "name": "operator",
          "type": "address"
        },
        {
          "internalType": "bool",
          "name": "approved",
          "type": "bool"
        }
      ],
      "name": "setApprovalForAll",
      "outputs": [],
      "stateMutability": "nonpayable",
      "type": "function"
    },
    {
      "inputs": [
        {
          "internalType": "address",
          "name": "_contract",
          "type": "address"
        }
      ],
      "name": "setBillPaymentContract",
      "outputs": [],
      "stateMutability": "nonpayable",
      "type": "function"
    },
    {
      "inputs": [
        {
          "internalType": "enum NFTRewards.RewardTier",
          "name": "_tier",
          "type": "uint8"
        },
        {
          "internalType": "uint256",
          "name": "_requirement",
          "type": "uint256"
        }
      ],
      "name": "setTierRequirement",
      "outputs": [],
      "stateMutability": "nonpayable",
      "type": "function"
    },
    {
      "inputs": [
        {
          "internalType": "enum NFTRewards.RewardTier",
          "name": "_tier",
          "type": "uint8"
        },
        {
          "internalType": "string",
          "name": "_uri",
          "type": "string"
        }
      ],
      "name": "setTierURI",
      "outputs": [],
      "stateMutability": "nonpayable",
      "type": "function"
    },
    {
      "inputs": [
        {
          "internalType": "bytes4",
          "name": "interfaceId",
          "type": "bytes4"
        }
      ],
      "name": "supportsInterface",
      "outputs": [
        {
          "internalType": "bool",
          "name": "",
          "type": "bool"
        }
      ],
      "stateMutability": "view",
      "type": "function"
    },
    {
      "inputs": [],
      "name": "symbol",
      "outputs": [
        {
          "internalType": "string",
          "name": "",
          "type": "string"
        }
      ],
      "stateMutability": "view",
      "type": "function"
    },
    {
      "inputs": [
        {
          "internalType": "enum NFTRewards.RewardTier",
          "name": "",
          "type": "uint8"
        }
      ],
      "name": "tierRequirements",
      "outputs": [
        {
          "internalType": "uint256",
          "name": "",
          "type": "uint256"
        }
      ],
      "stateMutability": "view",
      "type": "function"
    },
    {
      "inputs": [
        {
          "internalType": "enum NFTRewards.RewardTier",
          "name": "",
          "type": "uint8"
        }
      ],
      "name": "tierURIs",
      "outputs": [
        {
          "internalType": "string",
          "name": "",
          "type": "string"
        }
      ],
      "stateMutability": "view",
      "type": "function"
    },
    {
      "inputs": [
        {
          "internalType": "uint256",
          "name": "tokenId",
          "type": "uint256"
        }
      ],
      "name": "tokenURI",
      "outputs": [
        {
          "internalType": "string",
          "name": "",
          "type": "string"
        }
      ],
      "stateMutability": "view",
      "type": "function"
    },
    {
      "inputs": [
        {
          "internalType": "address",
          "name": "from",
          "type": "address"
        },
        {
          "internalType": "address",
          "name": "to",
          "type": "address"
        },
        {
          "internalType": "uint256",
          "name": "tokenId",
          "type": "uint256"
        }
      ],
      "name": "transferFrom",
      "outputs": [],
      "stateMutability": "nonpayable",
      "type": "function"
    },
    {
      "inputs": [
        {
          "internalType": "address",
          "name": "newOwner",
          "type": "address"
        }
      ],
      "name": "transferOwnership",
      "outputs": [],
      "stateMutability": "nonpayable",
      "type": "function"
    },
    {
      "inputs": [
        {
          "internalType": "address",
          "name": "_user",
          "type": "address"
        }
      ],
      "name": "updateUserStats",
      "outputs": [],
      "stateMutability": "nonpayable",
      "type": "function"
    },
    {
      "inputs": [
        {
          "internalType": "address",
          "name": "",
          "type": "address"
        },
        {
          "internalType": "uint256",
          "name": "",
          "type": "uint256"
        }
      ],
      "name": "userNFTs",
      "outputs": [
        {
          "internalType": "uint256",
          "name": "",
          "type": "uint256"
        }
      ],
      "stateMutability": "view",
      "type": "function"
    },
    {
      "inputs": [
        {
          "internalType": "address",
          "name": "",
          "type": "address"
        }
      ],
      "name": "userPaymentCount",
      "outputs": [
        {
          "internalType": "uint256",
          "name": "",
          "type": "uint256"
        }
      ],
      "stateMutability": "view",
      "type": "function"
    },
    {
      "inputs": [
        {
          "internalType": "address",
          "name": "",
          "type": "address"
        },
        {
          "internalType": "enum NFTRewards.RewardTier",
          "name": "",
          "type": "uint8"
        }
      ],
      "name": "userTierAchieved",
      "outputs": [
        {
          "internalType": "bool",
          "name": "",
          "type": "bool"
        }
      ],
      "stateMutability": "view",
      "type": "function"
    },
    {
      "inputs": [
        {
          "internalType": "address",
          "name": "",
          "type": "address"
        }
      ],
      "name": "userTotalValue",
      "outputs": [
        {
          "internalType": "uint256",
          "name": "",
          "type": "uint256"
        }
      ],
      "stateMutability": "view",
      "type": "function"
    }
  ],
  "bytecode": "0x60806040523480156200001157600080fd5b5060405162003676380380620036768339810160408190526200003491620003a1565b6040518060400160405280601581526020017f464545455a204c6f79616c747920526577617264730000000000000000000000815250604051806040016040528060058152602001642322a2a2ad60d91b815250816000908162000099919062000478565b506001620000a8828262000478565b505050620000c5620000bf6200034b60201b60201c565b6200034f565b6001600855600a80546001600160a01b0319166001600160a01b0383161781556010602090815260037f6e0956cda88cad152e89927e53611735b61a5c762d1428573c6931b0a5efcb01557f8c6065603763fec3f5742441d3833f3f43b982453612d76adb39a885e3006b5f9190915560197f853b2fefe141400fef543280f93d98bd49996069f632d0d20236afeeed8e46a25560327fb3edd0d534d647cffdae9f1294f11ad21f3fcf2814bea44c92bbb8d384a57d9e55600460005260647f1588ac671d87f82adc0e6ae8ab009c0de98f92a20243897597e566bc59b9c126556040805160608101909152602380825290916200360b908301396000805260116020527f4ad3b33220dddc71b994a52d72c06b10862965f7d926534c05c00fb7e819e7b790620001f7908262000478565b506040518060600160405280602381526020016200365360239139600160005260116020527f17bc176d2408558f6e4111feebc3cab4e16b63e967be91cde721f4c8a488b552906200024a908262000478565b50604051806060016040528060218152602001620035ea60219139600260005260116020527f08037d7b151cc412d25674a4e66b334d9ae9d2e5517a7feaae5cdb828bf1c628906200029d908262000478565b50604051806060016040528060248152602001620035c660249139600360005260116020527f9bfbaa59f8e10e7868f8b402de9d605a390c45ddaebd8c9de3c6f31e733c87ff90620002f0908262000478565b506040518060600160405280602581526020016200362e60259139600460005260116020527f251164fe1d8864fe5e86082eae9c288bc2b58695a4d28538dfe86e9e4f1755859062000343908262000478565b505062000544565b3390565b600780546001600160a01b038381166001600160a01b0319831681179093556040519116919082907f8be0079c531659141344cd1fd0a4f28419497f9722a3daafe3b4186f6b6457e090600090a35050565b600060208284031215620003b457600080fd5b81516001600160a01b0381168114620003cc57600080fd5b9392505050565b634e487b7160e01b600052604160045260246000fd5b600181811c90821680620003fe57607f821691505b6020821081036200041f57634e487b7160e01b600052602260045260246000fd5b50919050565b601f8211156200047357600081815260208120601f850160051c810160208610156200044e5750805b601f850160051c820191505b818110156200046f578281556001016200045a565b5050505b505050565b81516001600160401b03811115620004945762000494620003d3565b620004ac81620004a58454620003e9565b8462000425565b602080601f831160018114620004e45760008415620004cb5750858301515b600019600386901b1c1916600185901b1785556200046f565b600085815260208120601f198616915b828110156200051557888601518255948401946001909101908401620004f4565b5085821015620005345787850151600019600388901b60f8161c191681555b5050505050600190811b01905550565b61307280620005546000396000f3fe608060405234801561001057600080fd5b50600436106102115760003560e01c80636352211e11610125578063a22cb465116100ad578063c68cc3b61161007c578063c68cc3b614610564578063c87b56dd14610584578063ca7b64bb14610597578063e985e9c5146105a2578063f2fde38b146105b557600080fd5b8063a22cb46514610518578063a9a479b31461052b578063b88d4fde1461053e578063c0f52dcd1461055157600080fd5b80637e83f980116100f45780637e83f980146104b35780638da5cb5b146104c657806395d89b41146104d7578063973538ab146104df5780639be78c8d1461050557600080fd5b80636352211e1461046557806370a0823114610478578063715018a61461048b5780637b52f0941461049357600080fd5b8063291c73c3116101a857806345c399351161017757806345c39935146103cc5780634e43603a146103fa57806352de4ee51461041d57806354f561fb1461043d578063616df9dc1461045d57600080fd5b8063291c73c314610380578063333e972d1461039357806340933d16146103a657806342842e0e146103b957600080fd5b80630d8f1693116101e45780630d8f16931461029357806312247e801461032c578063199d37191461033f57806323b872dd1461036d57600080fd5b806301ffc9a71461021657806306fdde031461023e578063081812fc14610253578063095ea7b31461027e575b600080fd5b61022961022436600461263f565b6105c8565b60405190151581526020015b60405180910390f35b6102466105d9565b60405161023591906126ac565b6102666102613660046126bf565b61066b565b6040516001600160a01b039091168152602001610235565b61029161028c3660046126ed565b610692565b005b6102fa6102a1366004612719565b6001600160a01b03166000908152600d602090815260408083208380529091528082205460018352818320546002845282842054600385528385205460048652939094205460ff92831695918316948316938316921690565b60408051951515865293151560208601529115159284019290925290151560608301521515608082015260a001610235565b61029161033a36600461274a565b6107ac565b61035f61034d366004612719565b600e6020526000908152604090205481565b604051908152602001610235565b61029161037b366004612766565b6107f1565b61035f61038e3660046126ed565b610822565b6102916103a1366004612846565b610853565b6102916103b4366004612719565b61089d565b6102916103c7366004612766565b6108c7565b6102296103da3660046128a8565b600d60209081526000928352604080842090915290825290205460ff1681565b61040d610408366004612719565b6108e2565b6040516102359493929190612915565b61043061042b366004612719565b610923565b6040516102359190612940565b61035f61044b366004612719565b600f6020526000908152604090205481565b61035f600581565b6102666104733660046126bf565b61098f565b61035f610486366004612719565b6109ef565b610291610a75565b6104a66104a13660046126bf565b610a89565b6040516102359190612984565b600a54610266906001600160a01b031681565b6007546001600160a01b0316610266565b610246610beb565b6104f26104ed3660046126bf565b610bfa565b60405161023597969594939291906129ed565b610291610513366004612719565b610ccc565b610291610526366004612a41565b610e67565b610229610539366004612719565b610e76565b61029161054c366004612a7f565b6110dc565b61024661055f366004612aff565b61110e565b61035f610572366004612aff565b60106020526000908152604090205481565b6102466105923660046126bf565b6111a8565b61035f633b9aca0081565b6102296105b0366004612b1a565b6111b3565b6102916105c3366004612719565b6111e1565b60006105d38261125a565b92915050565b6060600080546105e890612b48565b80601f016020809104026020016040519081016040528092919081815260200182805461061490612b48565b80156106615780601f1061063657610100808354040283529160200191610661565b820191906000526020600020905b81548152906001019060200180831161064457829003601f168201915b5050505050905090565b60006106768261127f565b506000908152600460205260409020546001600160a01b031690565b600061069d8261098f565b9050806001600160a01b0316836001600160a01b03160361070f5760405162461bcd60e51b815260206004820152602160248201527f4552433732313a20617070726f76616c20746f2063757272656e74206f776e656044820152603960f91b60648201526084015b60405180910390fd5b336001600160a01b038216148061072b575061072b81336111b3565b61079d5760405162461bcd60e51b815260206004820152603d60248201527f4552433732313a20617070726f76652063616c6c6572206973206e6f7420746f60448201527f6b656e206f776e6572206f7220617070726f76656420666f7220616c6c0000006064820152608401610706565b6107a783836112de565b505050565b6107b461134c565b80601060008460048111156107cb576107cb6128dd565b60048111156107dc576107dc6128dd565b81526020810191909152604001600020555050565b6107fb33826113a6565b6108175760405162461bcd60e51b815260040161070690612b82565b6107a7838383611405565b600c602052816000526040600020818154811061083e57600080fd5b90600052602060002001600091509150505481565b61085b61134c565b8060116000846004811115610872576108726128dd565b6004811115610883576108836128dd565b815260200190815260200160002090816107a79190612c1d565b6108a561134c565b600a80546001600160a01b0319166001600160a01b0392909216919091179055565b6107a7838383604051806020016040528060008152506110dc565b6001600160a01b0381166000908152600e6020908152604080832054600f835281842054600c90935290832054909261091a84611569565b90509193509193565b6001600160a01b0381166000908152600c602090815260409182902080548351818402810184019094528084526060939283018282801561098357602002820191906000526020600020905b81548152602001906001019080831161096f575b50505050509050919050565b6000818152600260205260408120546001600160a01b0316806105d35760405162461bcd60e51b8152602060048201526018602482015277115490cdcc8c4e881a5b9d985b1a59081d1bdad95b88125160421b6044820152606401610706565b60006001600160a01b038216610a595760405162461bcd60e51b815260206004820152602960248201527f4552433732313a2061646472657373207a65726f206973206e6f7420612076616044820152683634b21037bbb732b960b91b6064820152608401610706565b506001600160a01b031660009081526003602052604090205490565b610a7d61134c565b610a87600061165b565b565b610ac96040805160e08101825260008082526020820181905290918201908152602001600081526020016000815260200160008152602001606081525090565b6000828152600b6020908152604091829020825160e0810184528154815260018201546001600160a01b0381169382019390935292909190830190600160a01b900460ff166004811115610b1f57610b1f6128dd565b6004811115610b3057610b306128dd565b8152602001600282015481526020016003820154815260200160048201548152602001600582018054610b6290612b48565b80601f0160208091040260200160405190810160405280929190818152602001828054610b8e90612b48565b8015610bdb5780601f10610bb057610100808354040283529160200191610bdb565b820191906000526020600020905b815481529060010190602001808311610bbe57829003601f168201915b5050505050815250509050919050565b6060600180546105e890612b48565b600b6020526000908152604090208054600182015460028301546003840154600485015460058601805495966001600160a01b03861696600160a01b90960460ff1695909190610c4990612b48565b80601f0160208091040260200160405190810160405280929190818152602001828054610c7590612b48565b8015610cc25780601f10610c9757610100808354040283529160200191610cc2565b820191906000526020600020905b815481529060010190602001808311610ca557829003601f168201915b5050505050905087565b600a54604051639d7dadeb60e01b81526001600160a01b0383811660048301526000921690639d7dadeb90602401600060405180830381865afa158015610d17573d6000803e3d6000fd5b505050506040513d6000823e601f3d908101601f19168201604052610d3f9190810190612cdd565b905060008060005b8351811015610e2d57600a54845160009182916001600160a01b0390911690633280a83690889086908110610d7e57610d7e612d83565b60200260200101516040518263ffffffff1660e01b8152600401610da491815260200190565b61014060405180830381865afa158015610dc2573d6000803e3d6000fd5b505050506040513d601f19601f82011682018060405250810190610de69190612d99565b5098505050965050505050508060ff16600203610e185784610e0781612e53565b9550610e1590508285612e6c565b93505b50508080610e2590612e53565b915050610d47565b506001600160a01b0384166000908152600e60209081526040808320859055600f9091529020819055610e618483836116ad565b50505050565b610e723383836118b9565b5050565b600a54604051639d7dadeb60e01b81526001600160a01b0383811660048301526000928392911690639d7dadeb90602401600060405180830381865afa158015610ec4573d6000803e3d6000fd5b505050506040513d6000823e601f3d908101601f19168201604052610eec9190810190612cdd565b9050600581511015610f015750600092915050565b805160009081905b801561101457600a54600090819081906001600160a01b0316633280a83688610f33600188612e7f565b81518110610f4357610f43612d83565b60200260200101516040518263ffffffff1660e01b8152600401610f6991815260200190565b61014060405180830381865afa158015610f87573d6000803e3d6000fd5b505050506040513d601f19601f82011682018060405250810190610fab9190612d99565b509850509750975050505050508060ff16600203610ffe57841580610fdc5750622a3000610fd98387612e7f565b11155b15610ff65785610feb81612e53565b965050819450610ffe565b505050611014565b505050808061100c90612e92565b915050610f09565b50600582106110d157611083856040518060400160405280601781526020017f5061796d656e742053747265616b204368616d70696f6e00000000000000000081525084600f60008a6001600160a01b03166001600160a01b0316815260200190815260200160002054611987565b846001600160a01b03167f5edcdb3c2412c4b0ff7fcdc91c3bd3df539c7a8cc5eb0b9fa09cee99939a025a836040516110be91815260200190565b60405180910390a2506001949350505050565b506000949350505050565b6110e633836113a6565b6111025760405162461bcd60e51b815260040161070690612b82565b610e6184848484611b12565b6011602052600090815260409020805461112790612b48565b80601f016020809104026020016040519081016040528092919081815260200182805461115390612b48565b80156111a05780601f10611175576101008083540402835291602001916111a0565b820191906000526020600020905b81548152906001019060200180831161118357829003601f168201915b505050505081565b60606105d382611b45565b6001600160a01b03918216600090815260056020908152604080832093909416825291909152205460ff1690565b6111e961134c565b6001600160a01b03811661124e5760405162461bcd60e51b815260206004820152602660248201527f4f776e61626c653a206e6577206f776e657220697320746865207a65726f206160448201526564647265737360d01b6064820152608401610706565b6112578161165b565b50565b60006001600160e01b03198216632483248360e11b14806105d357506105d382611c4d565b6000818152600260205260409020546001600160a01b03166112575760405162461bcd60e51b8152602060048201526018602482015277115490cdcc8c4e881a5b9d985b1a59081d1bdad95b88125160421b6044820152606401610706565b600081815260046020526040902080546001600160a01b0319166001600160a01b03841690811790915581906113138261098f565b6001600160a01b03167f8c5be1e5ebec7d5bd14f71427d1e84f3dd0314c0f7b2291e5b200ac8c7c3b92560405160405180910390a45050565b6007546001600160a01b03163314610a875760405162461bcd60e51b815260206004820181905260248201527f4f776e61626c653a2063616c6c6572206973206e6f7420746865206f776e65726044820152606401610706565b6000806113b28361098f565b9050806001600160a01b0316846001600160a01b031614806113d957506113d981856111b3565b806113fd5750836001600160a01b03166113f28461066b565b6001600160a01b0316145b949350505050565b826001600160a01b03166114188261098f565b6001600160a01b03161461143e5760405162461bcd60e51b815260040161070690612ea9565b6001600160a01b0382166114a05760405162461bcd60e51b8152602060048201526024808201527f4552433732313a207472616e7366657220746f20746865207a65726f206164646044820152637265737360e01b6064820152608401610706565b826001600160a01b03166114b38261098f565b6001600160a01b0316146114d95760405162461bcd60e51b815260040161070690612ea9565b600081815260046020908152604080832080546001600160a01b03199081169091556001600160a01b0387811680865260038552838620805460001901905590871680865283862080546001019055868652600290945282852080549092168417909155905184937fddf252ad1be2c89b69c2b068fc378daa952ba7f163c4a11628f55a4df523b3ef91a4505050565b6004600090815260106020527f1588ac671d87f82adc0e6ae8ab009c0de98f92a20243897597e566bc59b9c1265482106115a557506004919050565b600360005260106020527fb3edd0d534d647cffdae9f1294f11ad21f3fcf2814bea44c92bbb8d384a57d9e5482106115df57506003919050565b600260005260106020527f853b2fefe141400fef543280f93d98bd49996069f632d0d20236afeeed8e46a254821061161957506002919050565b600160005260106020527f8c6065603763fec3f5742441d3833f3f43b982453612d76adb39a885e3006b5f54821061165357506001919050565b506000919050565b600780546001600160a01b038381166001600160a01b0319831681179093556040519116919082907f8be0079c531659141344cd1fd0a4f28419497f9722a3daafe3b4186f6b6457e090600090a35050565b60006116b883611569565b905060005b8160048111156116cf576116cf6128dd565b81116118465760008160048111156116e9576116e96128dd565b6001600160a01b0387166000908152600d60205260408120919250826004811115611716576117166128dd565b6004811115611727576117276128dd565b815260208101919091526040016000205460ff1615801561177d575060106000826004811115611759576117596128dd565b600481111561176a5761176a6128dd565b8152602001908152602001600020548510155b156118335761178e86828787611c9d565b6001600160a01b0386166000908152600d602052604081206001918360048111156117bb576117bb6128dd565b60048111156117cc576117cc6128dd565b815260200190815260200160002060006101000a81548160ff021916908315150217905550856001600160a01b03167f7dc68fa18ac2a0703547ae35834f3f657ff9eae9d01391698f844ddaef34bba08260405161182a9190612eee565b60405180910390a25b508061183e81612e53565b9150506116bd565b50633b9aca00821015801561188057506001600160a01b0384166000908152600d602090815260408083206003845290915290205460ff16155b15610e6157610e61846040518060400160405280601081526020016f2434b3b4102b30b63ab2902830bcb2b960811b8152508585611987565b816001600160a01b0316836001600160a01b03160361191a5760405162461bcd60e51b815260206004820152601960248201527f4552433732313a20617070726f766520746f2063616c6c6572000000000000006044820152606401610706565b6001600160a01b03838116600081815260056020908152604080832094871680845294825291829020805460ff191686151590811790915591519182527f17307eab39ab6107e8899845ad3d59bd9653f200f220920489ca2b5937696c31910160405180910390a3505050565b611995600980546001019055565b60006119a060095490565b90506119ac8582611ef4565b6119ce81604051806060016040528060248152602001612ff860249139611f0e565b6040805160e0810182528281526001600160a01b03878116602080840191825260038486019081524260608601526080850189905260a0850188905260c085018a90526000878152600b9092529490208351815590516001820180546001600160a01b03198116929094169182178155945193949193926001600160a81b03191617600160a01b836004811115611a6757611a676128dd565b0217905550606082015160028201556080820151600382015560a0820151600482015560c08201516005820190611a9e9082612c1d565b5050506001600160a01b0385166000818152600c6020908152604080832080546001810182559084529190922001839055518291907f6c8fbfb8afa4631cf289cbb0f11ebcfd81c518cde12c47d2ac654440ff49bb7690611b03906003908990612efc565b60405180910390a35050505050565b611b1d848484611405565b611b2984848484611fd9565b610e615760405162461bcd60e51b815260040161070690612f1c565b6060611b508261127f565b60008281526006602052604081208054611b6990612b48565b80601f0160208091040260200160405190810160405280929190818152602001828054611b9590612b48565b8015611be25780601f10611bb757610100808354040283529160200191611be2565b820191906000526020600020905b815481529060010190602001808311611bc557829003601f168201915b505050505090506000611c0060408051602081019091526000815290565b90508051600003611c12575092915050565b815115611c44578082604051602001611c2c929190612f6e565b60405160208183030381529060405292505050919050565b6113fd846120da565b60006001600160e01b031982166380ac58cd60e01b1480611c7e57506001600160e01b03198216635b5e139f60e01b145b806105d357506301ffc9a760e01b6001600160e01b03198316146105d3565b611cab600980546001019055565b6000611cb660095490565b9050611cc28582611ef4565b611d898160116000876004811115611cdc57611cdc6128dd565b6004811115611ced57611ced6128dd565b81526020019081526020016000208054611d0690612b48565b80601f0160208091040260200160405190810160405280929190818152602001828054611d3290612b48565b8015611d7f5780601f10611d5457610100808354040283529160200191611d7f565b820191906000526020600020905b815481529060010190602001808311611d6257829003601f168201915b5050505050611f0e565b6000611d948561214e565b90506040518060e00160405280838152602001876001600160a01b03168152602001866004811115611dc857611dc86128dd565b81524260208083019190915260408083018890526060830187905260809092018490526000858152600b825282902083518155908301516001820180546001600160a01b039092166001600160a01b031983168117825593850151929390916001600160a81b03191617600160a01b836004811115611e4957611e496128dd565b0217905550606082015160028201556080820151600382015560a0820151600482015560c08201516005820190611e809082612c1d565b5050506001600160a01b0386166000818152600c6020908152604080832080546001810182559084529190922001849055518391907f6c8fbfb8afa4631cf289cbb0f11ebcfd81c518cde12c47d2ac654440ff49bb7690611ee49089908690612efc565b60405180910390a3505050505050565b610e72828260405180602001604052806000815250612300565b6000828152600260205260409020546001600160a01b0316611f895760405162461bcd60e51b815260206004820152602e60248201527f45524337323155524953746f726167653a2055524920736574206f66206e6f6e60448201526d32bc34b9ba32b73a103a37b5b2b760911b6064820152608401610706565b6000828152600660205260409020611fa18282612c1d565b506040518281527ff8e1a15aba9398e019f0b49df1a4fde98ee17ae345cb5f6b5e2c27f5033e8ce79060200160405180910390a15050565b60006001600160a01b0384163b156120cf57604051630a85bd0160e11b81526001600160a01b0385169063150b7a029061201d903390899088908890600401612f9d565b6020604051808303816000875af1925050508015612058575060408051601f3d908101601f1916820190925261205591810190612fda565b60015b6120b5573d808015612086576040519150601f19603f3d011682016040523d82523d6000602084013e61208b565b606091505b5080516000036120ad5760405162461bcd60e51b815260040161070690612f1c565b805181602001fd5b6001600160e01b031916630a85bd0160e11b1490506113fd565b506001949350505050565b60606120e58261127f565b60006120fc60408051602081019091526000815290565b9050600081511161211c5760405180602001604052806000815250612147565b8061212684612333565b604051602001612137929190612f6e565b6040516020818303038152906040525b9392505050565b60606000826004811115612164576121646128dd565b036121a257505060408051808201909152601a81527f4669727374205374657073202d20332042696c6c732050616964000000000000602082015290565b60018260048111156121b6576121b66128dd565b036121da5760405180606001604052806021815260200161301c6021913992915050565b60028260048111156121ee576121ee6128dd565b0361222c57505060408051808201909152601b81527f42696c6c204d6173746572202d2032352042696c6c7320506169640000000000602082015290565b6003826004811115612240576122406128dd565b0361227e57505060408051808201909152601b81527f5061796d656e742050726f202d2035302042696c6c7320506169640000000000602082015290565b6004826004811115612292576122926128dd565b036122d057505060408051808201909152601d81527f464545455a204c6567656e64202d203130302042696c6c732050616964000000602082015290565b50506040805180820190915260148152731058da1a595d995b595b9d08155b9b1bd8dad95960621b602082015290565b61230a83836123c6565b6123176000848484611fd9565b6107a75760405162461bcd60e51b815260040161070690612f1c565b6060600061234083612551565b600101905060008167ffffffffffffffff811115612360576123606127a7565b6040519080825280601f01601f19166020018201604052801561238a576020820181803683370190505b5090508181016020015b600019016f181899199a1a9b1b9c1cb0b131b232b360811b600a86061a8153600a850494508461239457509392505050565b6001600160a01b03821661241c5760405162461bcd60e51b815260206004820181905260248201527f4552433732313a206d696e7420746f20746865207a65726f20616464726573736044820152606401610706565b6000818152600260205260409020546001600160a01b0316156124815760405162461bcd60e51b815260206004820152601c60248201527f4552433732313a20746f6b656e20616c7265616479206d696e746564000000006044820152606401610706565b6000818152600260205260409020546001600160a01b0316156124e65760405162461bcd60e51b815260206004820152601c60248201527f4552433732313a20746f6b656e20616c7265616479206d696e746564000000006044820152606401610706565b6001600160a01b038216600081815260036020908152604080832080546001019055848352600290915280822080546001600160a01b0319168417905551839291907fddf252ad1be2c89b69c2b068fc378daa952ba7f163c4a11628f55a4df523b3ef908290a45050565b60008072184f03e93ff9f4daa797ed6e38ed64bf6a1f0160401b83106125905772184f03e93ff9f4daa797ed6e38ed64bf6a1f0160401b830492506040015b6d04ee2d6d415b85acef810000000083106125bc576d04ee2d6d415b85acef8100000000830492506020015b662386f26fc1000083106125da57662386f26fc10000830492506010015b6305f5e10083106125f2576305f5e100830492506008015b612710831061260657612710830492506004015b60648310612618576064830492506002015b600a83106105d35760010192915050565b6001600160e01b03198116811461125757600080fd5b60006020828403121561265157600080fd5b813561214781612629565b60005b8381101561267757818101518382015260200161265f565b50506000910152565b6000815180845261269881602086016020860161265c565b601f01601f19169290920160200192915050565b6020815260006121476020830184612680565b6000602082840312156126d157600080fd5b5035919050565b6001600160a01b038116811461125757600080fd5b6000806040838503121561270057600080fd5b823561270b816126d8565b946020939093013593505050565b60006020828403121561272b57600080fd5b8135612147816126d8565b80356005811061274557600080fd5b919050565b6000806040838503121561275d57600080fd5b61270b83612736565b60008060006060848603121561277b57600080fd5b8335612786816126d8565b92506020840135612796816126d8565b929592945050506040919091013590565b634e487b7160e01b600052604160045260246000fd5b604051601f8201601f1916810167ffffffffffffffff811182821017156127e6576127e66127a7565b604052919050565b600067ffffffffffffffff831115612808576128086127a7565b61281b601f8401601f19166020016127bd565b905082815283838301111561282f57600080fd5b828260208301376000602084830101529392505050565b6000806040838503121561285957600080fd5b61286283612736565b9150602083013567ffffffffffffffff81111561287e57600080fd5b8301601f8101851361288f57600080fd5b61289e858235602084016127ee565b9150509250929050565b600080604083850312156128bb57600080fd5b82356128c6816126d8565b91506128d460208401612736565b90509250929050565b634e487b7160e01b600052602160045260246000fd5b6005811061291157634e487b7160e01b600052602160045260246000fd5b9052565b84815260208101849052604081018390526080810161293760608301846128f3565b95945050505050565b6020808252825182820181905260009190848201906040850190845b818110156129785783518352928401929184019160010161295c565b50909695505050505050565b602081528151602082015260018060a01b036020830151166040820152600060408301516129b560608401826128f3565b5060608301516080830152608083015160a083015260a083015160c083015260c083015160e0808401526113fd610100840182612680565b8781526001600160a01b0387166020820152612a0c60408201876128f3565b8460608201528360808201528260a082015260e060c08201526000612a3460e0830184612680565b9998505050505050505050565b60008060408385031215612a5457600080fd5b8235612a5f816126d8565b915060208301358015158114612a7457600080fd5b809150509250929050565b60008060008060808587031215612a9557600080fd5b8435612aa0816126d8565b93506020850135612ab0816126d8565b925060408501359150606085013567ffffffffffffffff811115612ad357600080fd5b8501601f81018713612ae457600080fd5b612af3878235602084016127ee565b91505092959194509250565b600060208284031215612b1157600080fd5b61214782612736565b60008060408385031215612b2d57600080fd5b8235612b38816126d8565b91506020830135612a74816126d8565b600181811c90821680612b5c57607f821691505b602082108103612b7c57634e487b7160e01b600052602260045260246000fd5b50919050565b6020808252602d908201527f4552433732313a2063616c6c6572206973206e6f7420746f6b656e206f776e6560408201526c1c881bdc88185c1c1c9bdd9959609a1b606082015260800190565b601f8211156107a757600081815260208120601f850160051c81016020861015612bf65750805b601f850160051c820191505b81811015612c1557828155600101612c02565b505050505050565b815167ffffffffffffffff811115612c3757612c376127a7565b612c4b81612c458454612b48565b84612bcf565b602080601f831160018114612c805760008415612c685750858301515b600019600386901b1c1916600185901b178555612c15565b600085815260208120601f198616915b82811015612caf57888601518255948401946001909101908401612c90565b5085821015612ccd5787850151600019600388901b60f8161c191681555b5050505050600190811b01905550565b60006020808385031215612cf057600080fd5b825167ffffffffffffffff80821115612d0857600080fd5b818501915085601f830112612d1c57600080fd5b815181811115612d2e57612d2e6127a7565b8060051b9150612d3f8483016127bd565b8181529183018401918481019088841115612d5957600080fd5b938501935b83851015612d7757845182529385019390850190612d5e565b98975050505050505050565b634e487b7160e01b600052603260045260246000fd5b6000806000806000806000806000806101408b8d031215612db957600080fd5b8a51995060208b0151985060408b0151612dd2816126d8565b60608c0151909850612de3816126d8565b60808c0151909750612df4816126d8565b8096505060a08b0151945060c08b0151935060e08b015192506101008b015160ff81168114612e2257600080fd5b809250506101208b015190509295989b9194979a5092959850565b634e487b7160e01b600052601160045260246000fd5b600060018201612e6557612e65612e3d565b5060010190565b808201808211156105d3576105d3612e3d565b818103818111156105d3576105d3612e3d565b600081612ea157612ea1612e3d565b506000190190565b60208082526025908201527f4552433732313a207472616e736665722066726f6d20696e636f72726563742060408201526437bbb732b960d91b606082015260800190565b602081016105d382846128f3565b612f0681846128f3565b6040602082015260006113fd6040830184612680565b60208082526032908201527f4552433732313a207472616e7366657220746f206e6f6e20455243373231526560408201527131b2b4bb32b91034b6b83632b6b2b73a32b960711b606082015260800190565b60008351612f8081846020880161265c565b835190830190612f9481836020880161265c565b01949350505050565b6001600160a01b0385811682528416602082015260408101839052608060608201819052600090612fd090830184612680565b9695505050505050565b600060208284031215612fec57600080fd5b81516121478161262956fe68747470733a2f2f697066732e696f2f697066732f516d5370656369616c52657761726447657474696e67204f7267616e697a6564202d2031302042696c6c732050616964a26469706673582212206d57854ef03fcc289930b56bd5e750ecc144fe979f09e95f00af0bdae248de6164736f6c6343000813003368747470733a2f2f697066732e696f2f697066732f516d4469616d6f6e6452657761726468747470733a2f2f697066732e696f2f697066732f516d476f6c6452657761726468747470733a2f2f697066732e696f2f697066732f516d42726f6e7a6552657761726468747470733a2f2f697066732e696f2f697066732f516d506c6174696e756d52657761726468747470733a2f2f697066732e696f2f697066732f516d53696c766572526577617264",
  "linkReferences": {},
  "deployedLinkReferences": {}
}